{
  "_format": "hh-sol-artifact-1",
  "contractName": "FlashloanTriangularArbitrage",
  "sourceName": "contracts/FlashloanTriangularArbitrage.sol",
  "abi": [
    {
      "inputs": [
        {
          "internalType": "address",
          "name": "_tokenAdress",
          "type": "address"
        }
      ],
      "name": "getContractTokenBalance",
      "outputs": [
        {
          "internalType": "uint256",
          "name": "",
          "type": "uint256"
        }
      ],
      "stateMutability": "view",
      "type": "function"
    },
    {
      "inputs": [
        {
          "internalType": "address",
          "name": "_busdBorrow",
          "type": "address"
        },
        {
          "internalType": "uint256",
          "name": "_amount",
          "type": "uint256"
        }
      ],
      "name": "initiateArbitrage",
      "outputs": [],
      "stateMutability": "nonpayable",
      "type": "function"
    },
    {
      "inputs": [
        {
          "internalType": "address",
          "name": "_sender",
          "type": "address"
        },
        {
          "internalType": "uint256",
          "name": "_amount0",
          "type": "uint256"
        },
        {
          "internalType": "uint256",
          "name": "_amount1",
          "type": "uint256"
        },
        {
          "internalType": "bytes",
          "name": "_data",
          "type": "bytes"
        }
      ],
      "name": "pancakeCall",
      "outputs": [],
      "stateMutability": "nonpayable",
      "type": "function"
    }
  ],
  "bytecode": "0x60806040526201518042016000557fffffffffffffffffffffffffffffffffffffffffffffffffffffffffffffffff60015534801561003d57600080fd5b506119de8061004d6000396000f3fe608060405234801561001057600080fd5b50600436106100415760003560e01c806302f215281461004657806314205e281461009457806384800812146100ec575b600080fd5b6100926004803603604081101561005c57600080fd5b81019080803573ffffffffffffffffffffffffffffffffffffffff16906020019092919080359060200190929190505050610199565b005b6100d6600480360360208110156100aa57600080fd5b81019080803573ffffffffffffffffffffffffffffffffffffffff16906020019092919050505061094f565b6040518082815260200191505060405180910390f35b6101976004803603608081101561010257600080fd5b81019080803573ffffffffffffffffffffffffffffffffffffffff16906020019092919080359060200190929190803590602001909291908035906020019064010000000081111561015357600080fd5b82018360208201111561016557600080fd5b8035906020019184600183028401116401000000008311171561018757600080fd5b9091929391929390505050610a10565b005b73e9e7cea3dedca5984780bafc599bd69add087d5673ffffffffffffffffffffffffffffffffffffffff1663095ea7b37310ed43c718714eb63d5aa57b78b54704e256024e6001546040518363ffffffff1660e01b8152600401808373ffffffffffffffffffffffffffffffffffffffff1673ffffffffffffffffffffffffffffffffffffffff16815260200182815260200192505050602060405180830381600087803b15801561024a57600080fd5b505af115801561025e573d6000803e3d6000fd5b505050506040513d602081101561027457600080fd5b810190808051906020019092919050505050730e09fabb73bd3ade0a17ecc321fd13a19e81ce8273ffffffffffffffffffffffffffffffffffffffff1663095ea7b37310ed43c718714eb63d5aa57b78b54704e256024e6001546040518363ffffffff1660e01b8152600401808373ffffffffffffffffffffffffffffffffffffffff1673ffffffffffffffffffffffffffffffffffffffff16815260200182815260200192505050602060405180830381600087803b15801561033757600080fd5b505af115801561034b573d6000803e3d6000fd5b505050506040513d602081101561036157600080fd5b810190808051906020019092919050505050732c094f5a7d1146bb93850f629501eb749f6ed49173ffffffffffffffffffffffffffffffffffffffff1663095ea7b37310ed43c718714eb63d5aa57b78b54704e256024e6001546040518363ffffffff1660e01b8152600401808373ffffffffffffffffffffffffffffffffffffffff1673ffffffffffffffffffffffffffffffffffffffff16815260200182815260200192505050602060405180830381600087803b15801561042457600080fd5b505af1158015610438573d6000803e3d6000fd5b505050506040513d602081101561044e57600080fd5b810190808051906020019092919050505050600073ca143ce32fe78f1f7019d7d551a6402fc5350c7373ffffffffffffffffffffffffffffffffffffffff1663e6a4390584732170ed0880ac9a755fd29b2688956bd959f933f86040518363ffffffff1660e01b8152600401808373ffffffffffffffffffffffffffffffffffffffff1673ffffffffffffffffffffffffffffffffffffffff1681526020018273ffffffffffffffffffffffffffffffffffffffff1673ffffffffffffffffffffffffffffffffffffffff1681526020019250505060206040518083038186803b15801561053b57600080fd5b505afa15801561054f573d6000803e3d6000fd5b505050506040513d602081101561056557600080fd5b81019080805190602001909291905050509050600073ffffffffffffffffffffffffffffffffffffffff168173ffffffffffffffffffffffffffffffffffffffff16141561061b576040517f08c379a00000000000000000000000000000000000000000000000000000000081526004018080602001828103825260148152602001807f506f6f6c20646f6573206e6f742065786973747300000000000000000000000081525060200191505060405180910390fd5b60008173ffffffffffffffffffffffffffffffffffffffff16630dfe16816040518163ffffffff1660e01b815260040160206040518083038186803b15801561066357600080fd5b505afa158015610677573d6000803e3d6000fd5b505050506040513d602081101561068d57600080fd5b8101908080519060200190929190505050905060008273ffffffffffffffffffffffffffffffffffffffff1663d21220a76040518163ffffffff1660e01b815260040160206040518083038186803b1580156106e857600080fd5b505afa1580156106fc573d6000803e3d6000fd5b505050506040513d602081101561071257600080fd5b8101908080519060200190929190505050905060008273ffffffffffffffffffffffffffffffffffffffff168673ffffffffffffffffffffffffffffffffffffffff1614610761576000610763565b845b905060008273ffffffffffffffffffffffffffffffffffffffff168773ffffffffffffffffffffffffffffffffffffffff16146107a15760006107a3565b855b90506060878733604051602001808473ffffffffffffffffffffffffffffffffffffffff1673ffffffffffffffffffffffffffffffffffffffff1681526020018381526020018273ffffffffffffffffffffffffffffffffffffffff1673ffffffffffffffffffffffffffffffffffffffff168152602001935050505060405160208183030381529060405290508573ffffffffffffffffffffffffffffffffffffffff1663022c0d9f848430856040518563ffffffff1660e01b8152600401808581526020018481526020018373ffffffffffffffffffffffffffffffffffffffff1673ffffffffffffffffffffffffffffffffffffffff16815260200180602001828103825283818151815260200191508051906020019080838360005b838110156108de5780820151818401526020810190506108c3565b50505050905090810190601f16801561090b5780820380516001836020036101000a031916815260200191505b5095505050505050600060405180830381600087803b15801561092d57600080fd5b505af1158015610941573d6000803e3d6000fd5b505050505050505050505050565b60008173ffffffffffffffffffffffffffffffffffffffff166370a08231306040518263ffffffff1660e01b8152600401808273ffffffffffffffffffffffffffffffffffffffff1673ffffffffffffffffffffffffffffffffffffffff16815260200191505060206040518083038186803b1580156109ce57600080fd5b505afa1580156109e2573d6000803e3d6000fd5b505050506040513d60208110156109f857600080fd5b81019080805190602001909291905050509050919050565b60003373ffffffffffffffffffffffffffffffffffffffff16630dfe16816040518163ffffffff1660e01b815260040160206040518083038186803b158015610a5857600080fd5b505afa158015610a6c573d6000803e3d6000fd5b505050506040513d6020811015610a8257600080fd5b8101908080519060200190929190505050905060003373ffffffffffffffffffffffffffffffffffffffff1663d21220a76040518163ffffffff1660e01b815260040160206040518083038186803b158015610add57600080fd5b505afa158015610af1573d6000803e3d6000fd5b505050506040513d6020811015610b0757600080fd5b81019080805190602001909291905050509050600073ca143ce32fe78f1f7019d7d551a6402fc5350c7373ffffffffffffffffffffffffffffffffffffffff1663e6a4390584846040518363ffffffff1660e01b8152600401808373ffffffffffffffffffffffffffffffffffffffff1673ffffffffffffffffffffffffffffffffffffffff1681526020018273ffffffffffffffffffffffffffffffffffffffff1673ffffffffffffffffffffffffffffffffffffffff1681526020019250505060206040518083038186803b158015610be157600080fd5b505afa158015610bf5573d6000803e3d6000fd5b505050506040513d6020811015610c0b57600080fd5b810190808051906020019092919050505090503373ffffffffffffffffffffffffffffffffffffffff168173ffffffffffffffffffffffffffffffffffffffff1614610ca2576040517f08c379a00000000000000000000000000000000000000000000000000000000081526004018080602001828103825260228152602001806119636022913960400191505060405180910390fd5b3073ffffffffffffffffffffffffffffffffffffffff168873ffffffffffffffffffffffffffffffffffffffff1614610d26576040517f08c379a00000000000000000000000000000000000000000000000000000000081526004018080602001828103825260248152602001806119856024913960400191505060405180910390fd5b600080600087876060811015610d3b57600080fd5b81019080803573ffffffffffffffffffffffffffffffffffffffff16906020019092919080359060200190929190803573ffffffffffffffffffffffffffffffffffffffff169060200190929190505050925092509250600060016103e56003850281610da457fe5b04019050600081840190506000808d11610dbe578b610dc0565b8c5b90506000610df773e9e7cea3dedca5984780bafc599bd69add087d56730e09fabb73bd3ade0a17ecc321fd13a19e81ce8284611180565b90506000610e2e730e09fabb73bd3ade0a17ecc321fd13a19e81ce82732c094f5a7d1146bb93850f629501eb749f6ed49184611180565b90506000610e65732c094f5a7d1146bb93850f629501eb749f6ed49173e9e7cea3dedca5984780bafc599bd69add087d5684611180565b9050610ea66040518060400160405280600f81526020017f6c6f616e416d6f756e74203d3d3d3e000000000000000000000000000000000081525085611806565b610ee56040518060400160405280601081526020017f7472616465546f6b656e31203d3d3d3e0000000000000000000000000000000081525084611806565b610f246040518060400160405280601081526020017f7472616465546f6b656e32203d3d3d3e0000000000000000000000000000000081525083611806565b610f636040518060400160405280601081526020017f7472616465546f6b656e33203d3d3d3e0000000000000000000000000000000081525082611806565b6000610f6f828761190d565b905080610fe4576040517f08c379a000000000000000000000000000000000000000000000000000000000815260040180806020018281038252601b8152602001807f417262697472616765206973206e6f742070726f66697461626c65000000000081525060200191505060405180910390fd5b8973ffffffffffffffffffffffffffffffffffffffff1663a9059cbb898885036040518363ffffffff1660e01b8152600401808373ffffffffffffffffffffffffffffffffffffffff1673ffffffffffffffffffffffffffffffffffffffff16815260200182815260200192505050602060405180830381600087803b15801561106d57600080fd5b505af1158015611081573d6000803e3d6000fd5b505050506040513d602081101561109757600080fd5b8101908080519060200190929190505050508973ffffffffffffffffffffffffffffffffffffffff1663a9059cbb8c886040518363ffffffff1660e01b8152600401808373ffffffffffffffffffffffffffffffffffffffff1673ffffffffffffffffffffffffffffffffffffffff16815260200182815260200192505050602060405180830381600087803b15801561113057600080fd5b505af1158015611144573d6000803e3d6000fd5b505050506040513d602081101561115a57600080fd5b810190808051906020019092919050505050505050505050505050505050505050505050565b60008073ca143ce32fe78f1f7019d7d551a6402fc5350c7373ffffffffffffffffffffffffffffffffffffffff1663e6a4390586866040518363ffffffff1660e01b8152600401808373ffffffffffffffffffffffffffffffffffffffff1673ffffffffffffffffffffffffffffffffffffffff1681526020018273ffffffffffffffffffffffffffffffffffffffff1673ffffffffffffffffffffffffffffffffffffffff1681526020019250505060206040518083038186803b15801561124857600080fd5b505afa15801561125c573d6000803e3d6000fd5b505050506040513d602081101561127257600080fd5b81019080805190602001909291905050509050600073ffffffffffffffffffffffffffffffffffffffff168173ffffffffffffffffffffffffffffffffffffffff161415611328576040517f08c379a00000000000000000000000000000000000000000000000000000000081526004018080602001828103825260148152602001807f506f6f6c20646f6573206e6f742065786973747300000000000000000000000081525060200191505060405180910390fd5b6060600267ffffffffffffffff8111801561134257600080fd5b506040519080825280602002602001820160405280156113715781602001602082028036833780820191505090505b509050858160008151811061138257fe5b602002602001019073ffffffffffffffffffffffffffffffffffffffff16908173ffffffffffffffffffffffffffffffffffffffff168152505084816001815181106113ca57fe5b602002602001019073ffffffffffffffffffffffffffffffffffffffff16908173ffffffffffffffffffffffffffffffffffffffff168152505060007310ed43c718714eb63d5aa57b78b54704e256024e73ffffffffffffffffffffffffffffffffffffffff1663d06ca61f86846040518363ffffffff1660e01b81526004018083815260200180602001828103825283818151815260200191508051906020019060200280838360005b83811015611490578082015181840152602081019050611475565b50505050905001935050505060006040518083038186803b1580156114b457600080fd5b505afa1580156114c8573d6000803e3d6000fd5b505050506040513d6000823e3d601f19601f8201168201806040525060208110156114f257600080fd5b810190808051604051939291908464010000000082111561151257600080fd5b8382019150602082018581111561152857600080fd5b825186602082028301116401000000008211171561154557600080fd5b8083526020830192505050908051906020019060200280838360005b8381101561157c578082015181840152602081019050611561565b5050505090500160405250505060018151811061159557fe5b6020026020010151905060007310ed43c718714eb63d5aa57b78b54704e256024e73ffffffffffffffffffffffffffffffffffffffff166338ed1739878486306000546040518663ffffffff1660e01b815260040180868152602001858152602001806020018473ffffffffffffffffffffffffffffffffffffffff1673ffffffffffffffffffffffffffffffffffffffff168152602001838152602001828103825285818151815260200191508051906020019060200280838360005b8381101561166e578082015181840152602081019050611653565b505050509050019650505050505050600060405180830381600087803b15801561169757600080fd5b505af11580156116ab573d6000803e3d6000fd5b505050506040513d6000823e3d601f19601f8201168201806040525060208110156116d557600080fd5b81019080805160405193929190846401000000008211156116f557600080fd5b8382019150602082018581111561170b57600080fd5b825186602082028301116401000000008211171561172857600080fd5b8083526020830192505050908051906020019060200280838360005b8381101561175f578082015181840152602081019050611744565b5050505090500160405250505060018151811061177857fe5b60200260200101519050600081116117f8576040517f08c379a00000000000000000000000000000000000000000000000000000000081526004018080602001828103825260118152602001807f5472616e73616374696f6e2041626f727400000000000000000000000000000081525060200191505060405180910390fd5b809450505050509392505050565b61190982826040516024018080602001838152602001828103825284818151815260200191508051906020019080838360005b83811015611854578082015181840152602081019050611839565b50505050905090810190601f1680156118815780820380516001836020036101000a031916815260200191505b5093505050506040516020818303038152906040527fb60e72cc000000000000000000000000000000000000000000000000000000007bffffffffffffffffffffffffffffffffffffffffffffffffffffffff19166020820180517bffffffffffffffffffffffffffffffffffffffffffffffffffffffff838183161783525050505061191a565b5050565b6000818311905092915050565b61193181611929611934611955565b63ffffffff16565b50565b60006a636f6e736f6c652e6c6f679050600080835160208501845afa505050565b611960819050919050565bfefe5468652073656e646572206e6565647320746f206d617463682074686520706169725468652073656e6465722073686f756c64206d617463682074686520636f6e7472616374a26469706673582212205f9835a65bf3a2a9ceabcdf64e2227851f82676e3bec16f1b38167310eede6ed64736f6c63430006060033",
  "linkReferences": {},
  "deployedLinkReferences": {}
}